:0D00E7003F065B4F666D7D077F6FFEFDFBE2
:1000B900D3EF9400EE940040147D727C00ED1D7026
:0D00C900011CED4C70F7EF1F70E61E80E388
:0100D6002207
:10000E007580FFD2A7E5089000F193F580C2A7E5B1
:10001E000814600F14601B24027028D2A6EF75F02E
:10002E0064800CD2A6EF75F06484E5F075F00A8456
:10003E008009D2A6EF75F00A84E5F09000E793F5FB
:0D004E0080C2A60508E508B40303E4F50828
:01005B002282
:1000D700D2AFD2A9D28C758901758CED758AFF22B2
:10005C001200D720B0157F147E001200B920B00B0F
:10006C00E50B64786002050B30B0FD20B1E57F1420
:10007C007E001200B920B1DBE50BD39400400215D1
:06008C000B20B1CF80FB48
:03000B000200925E
:10009200C0E0C0F0C083C082C0D075D000C0077578
:1000A2008CED758AFFAF0B12000ED007D0D0D08234
:0700B200D083D0F0D0E03252
:030000000200F407
:0C00F400787FE4F6D8FD75810B02005CFB
:00000001FF
