:0A00C8003F065B4F666D7D077F6FFA
:0900890093F580C2A67F057E00FC
:10009200D3EF9400EE940040147D727C00ED1D704D
:0D00A200011CED4C70F7EF1F70E61E80E3AF
:0100AF00222E
:10000300EF75F06484FEEF75F06484E5F075F00A33
:1000130084FBEF75F00A84AAF07580FFD2A7758080
:10002300FEC2A7D2A6AF06EF9000C8120089758062
:10003300FFD2A77580FDC2A7D2A6AF03EF12008936
:100043007580FFD2A77580FBC2A7D2A6AF02EF933C
:0B005300F580C2A67F057E000200922F
:0C00B000D28C758901758C4B758AFD227D
:10005E001200B0308D14C28D758C4B758AFD05085B
:10006E00E508B41405E4F5080509AF09120003E527
:0B007E0009D3940A40DDE4F50980D8A6
:030000000200BC3F
:0C00BC00787FE4F6D8FD75810902005E33
:00000001FF
