:0D00CF003F065B4F666D7D077F6FFEFDFBFA
:100026007580FFD2A7E5089000D993F580C2A7E5B1
:100036000814600F14601B24027028D2A6EF75F016
:1000460064800CD2A6EF75F06484E5F075F00A843E
:100056008009D2A6EF75F00A84E5F09000CF93F5FB
:0D00660080C2A60508E508B40303E4F50810
:01007300226A
:10000E00D2AFD2A9D28CD29C438901758CED758A60
:02001E00FF22BF
:1000B900D2AFD2ACC29FD29ED29CD28E4389207538
:0600C9008DFD758BFD2288
:0800030012000E1200B980FE8C
:03000B000200747C
:10007400C0E0C0F0C083C082C0D075D000C0077596
:100084008CED758AFFAF09120026D007D0D0D0823C
:07009400D083D0F0D0E03270
:0300230002009B3D
:07009B00C0D075D000C007C2
:1000A20030980A859909C298AF090F8F9930990241
:0200B200C299F1
:0500B400D007D0D0329E
:030000000200DC1F
:0C00DC00787FE4F6D8FD7581090200036E
:00000001FF
