:03000000020444B3
:0C044400787FE4F6D8FD75812202035E8B
:0D04370048656C6C6F20776F726C6421005B
:10035E001204147BFF7A0479377D017F0112038B1F
:10036E001200038F2212021F8F22E52260F2FB7A07
:0D037E0000750C027D017F081203CC80E3A6
:1003FF00EF1FAC0670011E4C600A7D027CEFDCFE25
:04040F00DDFC80ECA4
:0104130022C6
:06042800C2A58F80D2A7DF
:08042E007F027EEFDEFEDFFC21
:0104360022A3
:0A045000C2A6120428C2A702042E5F
:1003AE00CFCDCFCECCCE1201CA7C007D0A1201CAAF
:0403BE00ED2430FFFB
:0A03C200D2A6120428C2A702042EDE
:1003E900AE07BE0104ED148006BE0209ED243F44A8
:0603F90080FF12045022F7
:100414007F381204507F0C1204507F061204507F60
:04042400010204507D
:0A045A00AC031203E9AF040203C271
:06038B008B088A09890AB3
:100391001203E9E4FDAB08AA09A90A8D827583005D
:0C03A10012018BFF60061203C20D80E900
:0103AD00222D
:0C032B007F0AEA24FFFDE434FFFC7E00A2
:080337008E0D8F0E8C0F8D104E
:10033F007F017E00E4FBEBC39510E50F6480F8743A
:0E034F008098500AAC0DAD0E1201B80B80E87C
:01035D00227D
:0403CC008A0A8B0B03
:1003D0001203E9AA0CEAD39400400D12032BAC0AD5
:0803E000AD0B1203AE1A80ED13
:0103E80022F2
:100280001203E9C3EA64809480400B7F2B1203C2FF
:100290008A168B17800E7F2D1203C2C3E49BF517BD
:1002A000E49AF516AA15EAD39400400D12032BAC7C
:0902B00016AD171203AE1A80ED21
:0102B9002222
:0402BA008A1A8B1BF6
:1002BE001203E9AA1CEAD3940040297F1012032DE1
:1002CE00AC1AAD1BCFCDCFCECCCE1201CAEF540F90
:1002DE00FEC3940AEE5004243080022437FF12032A
:0402EE00C21A80D1DF
:0102F20022E9
:0402F3008A1F8B20B3
:1002F7001203E9AA21EAD394004028EA24FFFDE487
:1003070034FFFC7F027E00120337AC1FAD20CFCD38
:10031700CFCECCCE1201CAEF54012430FF1203C254
:030327001A80D267
:01032A0022B0
:10000300E4F5087590FE2097147FC87E0012000067
:100013003097FD7FC87E00120000750801209614FA
:100023007F147E001200003096FD7F147E001200C4
:10003300007508052095147F147E0012000030958A
:10004300FD7F147E001200007508092094147F14AC
:100053007E001200003094FD7F147E0012000075B4
:10006300080DC392932097147F147E001200003072
:1000730097FD7F147E001200007508022096147FFE
:10008300147E001200003096FD7F147E00120000E3
:100093007508062095147F147E001200003095FD2C
:1000A3007F147E0012000075080A2094147F147ECA
:1000B300001200003094FD7F147E001200007508CA
:1000C3000EC392927590FF2097147F147E00120046
:1000D300003097FD7F147E00120000750803209600
:1000E300147F147E001200003096FD7F147E0012F0
:1000F30000007508072095147F147E00120000305D
:1001030095FD7F147E0012000075080B2094147F68
:10011300147E001200003094FD7F147E0012000054
:1001230075080FC392912097147F147E001200006C
:100133003097FD7F147E001200007508042096148A
:100143007F147E001200003096FD7F147E001200A3
:10015300007508082095147F147E00120000309566
:10016300FD7F147E0012000075080C2094147F1488
:100173007E001200003094FD7F147E001200007593
:080183000810C392900200096C
:10021F0075B0FE20B1147F147E0012000030B1FDC6
:10022F007F147E0012000075081120B0147F147E19
:10023F000012000030B0FD7F147E00120000750820
:10024F001220B2147F147E0012000030B2FD7F1412
:10025F007E0012000075081320B3B87F147E0012C1
:10026F00000030B3FD7F147E00120000750814806B
:01027F00A2DC
:10018B00BB010CE58229F582E5833AF583E0225029
:10019B0006E92582F8E622BBFE06E92582F8E22273
:0D01AB00E58229F582E5833AF583E493228D
:1001B800EF8DF0A4A8F0CF8CF0A428CE8DF0A42E5B
:0201C800FE2215
:1001CA00BC000BBE0029EF8DF084FFADF022E4CC19
:1001DA00F875F008EF2FFFEE33FEEC33FCEE9DECE2
:1001EA00984005FCEE9DFE0FD5F0E9E4CEFD22ED28
:1001FA00F8F5F0EE8420D21CFEADF075F008EF2F72
:10020A00FFED33FD4007985006D5F0F222C398FD62
:05021A000FD5F0EA22FF
:00000001FF
