:030000000203FFF9
:0C03FF00787FE4F6D8FD75813C020446CE
:0D064D0054494D453A00434C4F434B3A0091
:1005690001080002090000010B0001150A011C061F
:10057900011E0C011F06011D00090C30363A3130ED
:0C0589003A313000061630363A313200AC
:10000300438901758CFC758A18D2A9D2AFD28C12A0
:10001300062A7BFF7A06794DE4FD7F011205967B64
:10002300FF7A067953E4FD7F021205967B007A007E
:10003300790C7D057F011205967B007A0079167D88
:10004300067F021205967F0C12065A20A3487F10E2
:100053007E271205B920A33BE4F51DE508C39402EE
:10006300500405088003E4F508E50814600E1460E5
:10007300162402701E7F0C12065A80177F0E12067A
:100083005A7D067F0180097F0E12065A7D067F0284
:1000930012061430A3FDE508640160030202BB20CD
:1000A300A44D7F107E271205B920A40EE51DC3942D
:1000B300025004051D8003E4F51DE51D700C7F0E41
:1000C30012065A7D067F01120614E51DB4010C7F4A
:1000D3000E12065A7D097F01120614E51DB4020CA7
:1000E3007F0E12065A7D0C7F0112061430A4FDE523
:1000F3001D600302018920A5457F107E271205B9E3
:1001030020A50EE51CC394175004051C8003E4F5D9
:100113001CE51C75F00A842430F50CE51C75F00A07
:1001230084E5F02430F50D7B007A00790C7D057FA2
:10013300011205967D067F0112061430A5FD20A647
:10014300457F107E271205B920A60EE51CD3940027
:100153004004151C8003751C17E51C75F00A8424E4
:1001630030F50CE51C75F00A84E5F02430F50D7BC1
:10017300007A00790C7D057F011205967D067F01CB
:1001830012061430A6FDE51D64016003020222205D
:10019300A5457F107E271205B920A50EE515C3944A
:1001A3003B500405158003E4F515E51575F00A8445
:1001B3002430F50FE51575F00A84E5F02430F510C9
:1001C3007B007A00790C7D057F011205967D097FFE
:1001D3000112061430A5FD20A6457F107E271205C7
:1001E300B920A60EE515D3940040041515800375B8
:1001F300153BE51575F00A842430F50FE51575F008
:100203000A84E5F02430F5107B007A00790C7D0533
:100213007F011205967D097F0112061430A6FDE5C4
:100223001D640260030202BB20A5457F107E2712D6
:1002330005B920A50EE50BC3943B5004050B8003C1
:10024300E4F50BE50B75F00A842430F50FE50B7527
:10025300F00A84E5F02430F5107B007A00790C7DF8
:10026300057F011205967D097F0112061430A5FD55
:1002730020A6457F107E271205B920A60EE50BD3D5
:1002830094004004150B8003750B3BE50B75F00AD6
:10029300842430F50FE50B75F00A84E5F02430F57E
:1002A300107B007A00790C7D057F011205967D098C
:1002B3007F0112061430A6FDE50864026003020004
:1002C3004E20A4307F107E271205B920A40CE51D13
:1002D30070047F0180027F008F1DE51D7F0E700774
:1002E30012065A7D06800512065A7D097F02120600
:1002F3001430A4FDE51D600302004E20A5457F10C8
:100303007E271205B920A50EE51FC39417500405D7
:100313001F8003E4F51FE51F75F00A842430F516EA
:10032300E51F75F00A84E5F02430F5177B007A00A9
:1003330079167D067F021205967D067F021206144A
:1003430030A5FD30A60302004E7F107E271205B9AB
:1003530030A60302004EE51FD394004005151F028B
:08036300004E751F1702004E49
:0405B9008E3A8F3BAC
:1005BD00E53B453A60151200007F047ECDDEFEDF7F
:0B05CD00FCE53B153B70E9153A80E5AA
:0105D8002200
:06063E00C2A58F80D2A7C7
:080644007F027EEFDEFEDFFC09
:01064C00228B
:0A065A00C2A612063EC2A702064423
:1005D900CFCDCFCECCCE1203AA7C007D0A1203AABE
:0405E900ED2430FFCE
:0A05ED00D2A612063EC2A702064481
:10061400AE07BE0104ED148006BE0209ED243F447A
:0606240080FF12065A22BD
:10062A007F3812065A7F0C12065A7F0612065A7F24
:04063A000102065A59
:0A066400AC03120614AF040205ED0A
:060596008B3A8A3B893C10
:10059C00120614E4FDAB3AAA3BA93C8D827583008C
:0C05AC0012036BFF60061205ED0D80E9E4
:0105B8002220
:0C0536007F0AEA24FFFDE434FFFC7E0095
:080542008E368F378C388D399D
:10054A007F017E00E4FBEBC39539E5386480F874DB
:0E055A008098500AAC36AD371203980B80E83B
:010568002270
:0405F7008A298B2A98
:1005FB00120614AA2BEAD39400400D120536AC292F
:08060B00AD2A1205D91A80ED99
:0106130022C4
:10048B00120614C3EA64809480400B7F2B1205ED97
:10049B008A258B26800E7F2D1205EDC3E49BF52656
:1004AB00E49AF525AA24EAD39400400D120536AC44
:0904BB0025AD261205D91A80EDC9
:0104C4002215
:0404C5008A2E8B2FC1
:1004C900120614AA30EAD3940040297F1012053885
:1004D900AC2EAD2FCFCDCFCECCCE1203AAEF540F79
:1004E900FEC3940AEE5004243080022437FF12051B
:0404F900ED1A80D1A7
:0104FD0022DC
:0404FE008A338B347E
:10050200120614AA35EAD394004028EA24FFFDE437
:1005120034FFFC7F027E00120542AC33AD34CFCDF6
:10052200CFCECCCE1203AAEF54012430FF1205ED38
:030532001A80D25A
:0105350022A3
:10040B00020003E493A3F8E493A34003F68001F204
:10041B0008DFF48029E493A3F85407240CC8C333F2
:10042B00C4540F4420C8834004F456800146F6DFC1
:10043B00E4800B0102040810204080900569E47EE3
:10044B00019360BCA3FF543F30E509541FFEE493B6
:10045B00A360010ECF54C025E060A840B8E493A37D
:10046B00FAE493A3F8E493A3C8C582C8CAC583CAA8
:10047B00F0A3C8C582C8CAC583CADFE9DEE780BE60
:010595000065
:10036B00BB010CE58229F582E5833AF583E0225047
:10037B0006E92582F8E622BBFE06E92582F8E22291
:0D038B00E58229F582E5833AF583E49322AB
:10039800EF8DF0A4A8F0CF8CF0A428CE8DF0A42E79
:0203A800FE2233
:1003AA00BC000BBE0029EF8DF084FFADF022E4CC37
:1003BA00F875F008EF2FFFEE33FEEC33FCEE9DEC00
:1003CA00984005FCEE9DFE0FD5F0E9E4CEFD22ED46
:1003DA00F8F5F0EE8420D21CFEADF075F008EF2F90
:1003EA00FFED33FD4007985006D5F0F222C398FD81
:0503FA000FD5F0EA221E
:00000001FF
