:1000A400758922E4F58CF58AD2AFD2A9D28CD28894
:0D00B400D2A8758DFD758BFDD28ED29E22D7
:03000B00020006EA
:0300060005473279
:0300030002000EEA
:09000E00C0E0C0D075D000C000B4
:10001700300029E547C39435500AE547C39420408B
:100027000375210074222521F8A64775470005218D
:10003700E521B4210CD2027521008005754700D255
:0100470000B8
:07004800D000D0D0D0E0325F
:10004F007E01E4FDE4FC74222EF8E6D39405400310
:10005F00430780ECC394075004EFC313FF0E0CBC8F
:10006F0008E474432DF8A607E4FF0DBD04D6D201B2
:01007F00225E
:100080001200A43002FD12004FC2023001F5E4FF5D
:1000900074432FF8E6F5993099FDC2990FBF04F02B
:0400A000C20180DF3A
:030000000200C13A
:0C00C100787FE4F6D8FD758147020080CE
:00000001FF
