:1004F60057656C636F6D6520746F20757365210099
:1005060049522052656D6F7465204D6F64756C6538
:1005160000537769746368204D6F646521004465F4
:100526006661756C7420436F70794D6F6465004920
:1005360052205472616E736D6974204D6F6465004C
:10054600506C65617365204B657921004952636F74
:10055600646520436F7079204D6F646500506C654B
:0E05660061736520496E204952636F64650021
:1001CF001207621207DD1208487F327E001207B055
:1001DF007BFF7A0479F6E4FDFF1206AA7BFF7A050E
:1001EF0079067D01E4FF1206AA7F887E131207B0FD
:1001FF001208307BFF7A057917E4FDFF1206AA7B00
:10020F00FF7A0579247D01E4FF020341300635C2F0
:10021F0006120830AF0E12001E7D01E4FF1206AA6F
:10022F00AF0F12001E7D017F031206AAAF1012003E
:10023F001E7D017F071206AAAF1112001E7D017FDE
:10024F000A1206AA1204378F093002C0C202300008
:10025F007BE50964FD605AAF091206289204300449
:10026F00F6120574120830AF0912001E7D01E4FF6B
:10027F001206AAA204E433FF12001E7D017F0512AD
:10028F0006AAAF1212001EE4FDFF1206AAAF131248
:10029F00001EE4FD7F031206AAAF1412001EE4FD38
:1002AF007F071206AAAF1512001EE4FD7F0A020394
:1002BF00411208307BFF7A057935E4FDFF1206AA5B
:1002CF007BFF7A0579467D017F038066E50964FE31
:1002DF006066120830AF0912001E7D017F0E1206F4
:1002EF00AAAF091205DA92043004F6A204E433FF30
:1002FF0012001EE4FD7F0E1206AA7F647E00120715
:10030F00B0AF09120628AF1212001EE4FDFF12064D
:10031F00AAAF1312001EE4FD7F031206AAAF141238
:10032F00001EE4FD7F071206AAAF1512001EE4FDA2
:10033F007F0A1206AA02021B1208307BFF7A057988
:10034F0052E4FDFF1206AA7BFF7A0579637D01E473
:07035F00FF1206AA02021BB7
:1007B0007D737C00ED1D70011C144C70F7EF1F70F1
:0607C000011E144E70EA58
:0107C6002210
:020009000022D3
:10001E00E4FEEFC4540FB4100040030200F290004F
:10002E0033F828287302006302006D020076020086
:10003E007F02008802009102009A0200A30200AC27
:10004E000200B50200BE0200C70200D00200D902B3
:10005E0000E20200EB74162EF876300E0200F274F7
:10006E00162EF876310E807C74162EF876320E80AF
:10007E007374162EF876330E806A74162EF8763454
:10008E000E806174162EF876350E805874162EF882
:10009E0076360E804F74162EF876370E804674160E
:1000AE002EF876380E803D74162EF876390E803482
:1000BE0074162EF876410E802B74162EF876420E9C
:1000CE00802274162EF876430E801974162EF8764A
:1000DE00440E801074162EF876450E800774162E78
:1000EE00F876460EEF540FB4100040030201C39091
:1000FE000104F828287302013402013E020147026E
:10010E00015002015902016202016B0201740201E7
:10011E007D02018602018F0201980201A10201AA4D
:10012E000201B30201BC74162EF876300E0201C322
:10013E0074162EF876310E807C74162EF876320EEA
:10014E00807374162EF876330E806A74162EF87637
:10015E00340E806174162EF876350E805874162E75
:10016E00F876360E804F74162EF876370E8046745B
:10017E00162EF876380E803D74162EF876390E80CF
:10018E003474162EF876410E802B74162EF87642A5
:10019E000E802274162EF876430E801974162EF8E1
:1001AE0076440E801074162EF876450E800774165F
:1001BE002EF876460E74162EF8E4F6FB7A007916B3
:0101CE00220E
:100813007580FFC2B5D2B6C2B400D2B4E58033222C
:0C0830007F011207F17F057E000207B077
:1007F10012081340FBC2B5C2B6D2B48F8000C2B496
:0108010022D4
:1008020012081340FBD2B5C2B6D2B48F8000C2B474
:0108120022C3
:1006AA008B0A8A0B890CAE07ED7005EE2480800355
:1006BA00EE24C0FF1207F1AB0AAA0BA90C12066BB3
:1006CA006013050CE50C7002050B14F912066BFF9A
:0606DA0012080280E2227A
:100762007F381207F17F061207F17F0C1207F17F23
:0B077200011207F17F057E000207B0B6
:1007DD00758912758CF4758AF4D2AFD2ABD2A9D2C9
:0407ED00A8D2A422C8
:1007C7008F8D8D8BD28EA205928C308FFDC28FC2FA
:0607D7008CC28ED2A422A8
:10057400C2A8D2057D9A7FDF1207C7C2057DCD7F51
:10058400EF1207C7E4FE74122EF8E6FF740A2EF881
:10059400A607E4FCD2057DFC7FFD1207C7740A2E72
:1005A400F8E630E008C2057DEF7FF98006C2057DDC
:1005B400FC7FFD1207C7740A2EF8C000E6C313D0EF
:1005C40000F60CBC08CE0EBE04BCD2057DD77FFD60
:0505D4001207C7D2A8C8
:0105D90022FF
:03000B00020006EA
:03000600B2A4326F
:03001B0002084F89
:01084F003276
:030003000203668F
:10036600C0E0C0F0C083C082C0D075D000C000C05D
:0D03760001C002C003C004C005C006C007DE
:10038300C2A8758DE0758B52C28FD28ED203208F97
:100393000730B2FAC20380F6C28EC28F758DEE7536
:1003A3008B12D28E308FFD30B202C203C28EC28F47
:1003B30020B264300361E4FF750800740E2FF8C0A7
:1003C30000E6C313D000F630B2FD758DFC758BFAD1
:1003D300D28E308FFDC28EC28F30B217740E2FF8BB
:1003E300E64480F6758DFB758BF3D28E308FFDC29C
:1003F3008EC28F0508E508B408C10FBF04BAD20640
:10040300750800B2A37F147E001207B00508E50843
:09041300C3940540EED2A3D2A867
:10041C00D007D006D005D004D003D002D001D00034
:0B042C00D0D0D082D083D0F0D0E032DE
:07084800D2A000D2A10022A2
:0D000E00D2A100D2A0120009C2A002000978
:0D082300C2A000D2A1120009D2A00200095B
:10079700C2A100300504C2A08002D2A000D2A112DB
:0907A7000009C2A100D2A0002249
:05077D007FA012073F00
:10078200D2A112000930A008C2A100120823C3227C
:05079200C2A100D3220A
:10073F00E4FEC2A100EF30E705D2A0008003C2A003
:10074F0000D2A100EF25E0FF0EBE08E6C2A100D245
:02075F00A000F8
:010761002275
:10071600C2A100D2A000E4FED2A10030A00543078A
:100726000180035307FE00C2A100EEC394075004E4
:08073600EF25E0FF0EBE08E014
:01073E002298
:0205DA008F0A86
:1005DC0012000E12077D400122AF0A12073F1207CC
:1005EC0082400122E4F50B740E250BF8E6FF12078E
:1005FC003F120782400122050BE50BC3940440E730
:10060C00120823E4F50BB2A37F057E001207B00598
:0B061C000BE50BC3941440EED2A3D3F7
:0106270022B0
:020628008F0A37
:10062A0012000E12077D400122AF0A12073FC205CF
:10063A0012079712000E7FA112073F12078240018C
:10064A0022E4F50B1207167412250BF8A607D20539
:10065A00120797050BE50BC3940440E8120823D34D
:01066A00226D
:1006E00075B00FE5B0540F640F602A7F057E0012CD
:1006F00007B0E5B0540F640F601BE5B0540FFF4422
:10070000F0F5B0E5B054F0FEE5B054F0FDBDF0F802
:05071000D201EF2EFFF5
:0107150022C1
:100437001206E08F0A2001030204F5C201E50A1241
:10044700068404D17704BD7B04A97D04987E04CC7F
:10045700B70498BB04A4BD0493BE04C7D704B3DB99
:10046700049FDD048EDE04C2E704AEEB049AED04BC
:1004770089EE04E3F704DEFB04DAFD04D6FE000090
:1004870004E6E4F50A8058750A048053750A088063
:100497004E801E750A108047750A148042750A1827
:1004A700803D750A1B8038750A098033750A0A80F2
:1004B7002E750A0B8029750A0C8024750A20801F67
:1004C700750A24801A750A288015750A2B8010C2B0
:1004D70000800CD2008008750A138003750A30D299
:0E04E70002C2A37F647E001207B0D2A3AF0A48
:0104F50022E4
:0300000002083CB7
:0C083C00787FE4F6D8FD7581200201CF22
:10066B00BB010689828A83E0225002E722BBFE028D
:09067B00E32289828A83E49322C0
:10068400D083D082F8E4937012740193700DA3A305
:1006940093F8740193F5828883E473740293686019
:0606A400EFA3A3A380DF19
:00000001FF
