:100033007580FFC2B5D2B6D2B4AF80C2B4EF20E7A9
:01004300F6C6
:010044002299
:10005700AE07120033C2B5C2B68E80D2B4C2B42284
:10006700AE07120033D2B5C2B68E80D2B4C2B42264
:0D007700EFD39D40028002AF05EF0200456F
:100003007F381200577F0F1200577F011200577F6E
:10001300061200577F801200577B007A0079087D13
:10002300077F03120077E5082430FF12006780FE84
:0300000002008477
:0C008400787FE4F6D8FD758108020003C7
:10004500BB010689828A83F0225002F722BBFE019A
:02005500F32294
:00000001FF
