:0C02AA00446174653A0054696D653A00C7
:0902B6000708371E0910020210AE
:1001E2007D737C00ED1D70011C144C70F7EF1F70C5
:0601F200011E144E70EA2C
:0101F80022E4
:10023900E4FEC290EF139291D290EFC313FF0EBE6A
:0202490008F0BB
:01024B002290
:10021000E4FEC290EFC313FF309103430780D290F6
:040220000EBE08EE18
:0102240022B7
:0E029000C292C290D292120239AF0502023918
:0702C000E4FD7F8E020290B5
:0C029E007D807F8E120290C292C29022DE
:100126001202C0C292C290D2927FBE120239E4FD80
:1001360074082DF8E6FF75F00A84FCEF75F00A8462
:10014600A6F0ECC454F0FF74082DF8EF26F67408F8
:0E0156002DF8E6FF1202390DBD07D502029EFC
:10018C001202C0C292C290D2927FBF120239E4FD19
:10019C0012021074082DF8A6070DBD07F302029E7B
:100003001202251201267BFF7A0279AAE4FDFF1270
:1000130001647BFF7A0279B07D01E4FF120164126F
:10002300018CAB0EE4FD7F051201AC7B2DE4FD7F5B
:10003300071201F9AB0CE4FD7F081201AC7B2DE440
:10004300FD7F0A1201F9AB0BE4FD7F0B1201AC7BC0
:100053002DE4FD7F0D1201F9AB0DE4FD7F0E1201BE
:10006300ACAB0A7D017F061201AC7B3A7D017F08B0
:100073001201F9AB097D017F091201AC7B3A7D01C5
:100083007F0B1201F9AB087D017F0C1201AC7FE8F5
:070093007E031201E28088E8
:10024C007580FFC2B5D2B6D2B4AF80C2B4EF20E78E
:01025C00F6AB
:01025D00227E
:10027000AE0712024CC2B5C2B68E80D2B4C2B4224E
:10028000AE0712024CD2B5C2B68E80D2B4C2B4222E
:10025E00ED7004AC078004EF2440FCEC4480FF02F8
:02026E0002701C
:1001F900AE07AC03ED6003430640430680AF061229
:070209000270AF0402028045
:1001AC008F0FAA03A905050FEAC4540F2430FB12C4
:0D01BC0001F9EA540F2430FBAF0F0201F9E6
:100164008B0F8A10891112025EAB0FAA10A911120B
:1001740001C960130511E5117002051014F912018B
:08018400C9FF12028080E22293
:100225007F381202707F0C1202707F061202707FF7
:040235000102027050
:0300000002009A61
:0C009A00787FE4F6D8FD7581110200E1CA
:1001C900BB010689828A83E0225002E722BBFE0234
:0901D900E32289828A83E4932267
:1000A600020003E493A3F8E493A34003F68001F26D
:1000B60008DFF48029E493A3F85407240CC8C3335B
:1000C600C4540F4420C8834004F456800146F6DF2A
:1000D600E4800B01020408102040809002B6E47E02
:1000E600019360BCA3FF543F30E509541FFEE4931F
:1000F600A360010ECF54C025E060A840B8E493A3E6
:10010600FAE493A3F8E493A3C8C582C8CAC583CA10
:10011600F0A3C8C582C8CAC583CADFE9DEE780BEC8
:0102BF00003E
:00000001FF
