:0300000002024EAB
:0C024E00787FE4F6D8FD75812802019845
:0B025A00C9F1C6E6B5C4D7D6B7FB005B
:10019800E4F51EF51F12022B7BFF7A02795A7D01C6
:1001A8007F011201757B007A00793F7D107F08027C
:0201B8000175CF
:06023F00C2A58F80D2A7CA
:080245007F027EEFDEFEDFFC0C
:01024D00228E
:0A026500C2A612023FC2A702024522
:1001DA00CFCDCFCECCCE1200427C007D0A12004297
:0401EA00ED2430FFD1
:0A01EE00D2A612023FC2A70202458A
:10021500AE07BE0104ED148006BE0209ED243F447D
:0602250080FF12026522B9
:10022B007F381202657F0C1202657F061202657F12
:04023B000102026555
:0A026F00AC03120215AF040201EE09
:060175008B208A21892283
:10017B00120215E4FDAB20AA21A9228D8275830002
:0C018B00120003FF60061201EE0D80E977
:010197002245
:0C0142007F0AEA24FFFDE434FFFC7E008D
:08014E008E238F248C258D26E1
:100156007F017E00E4FBEBC39526E5256480F874F9
:0E0166008098500AAC23AD241200300B80E8C4
:010174002268
:0401F8008A118B12CB
:1001FC00120215AA13EAD39400400D120142AC115D
:08020C00AD121201DA1A80EDB7
:0102140022C7
:10009700120215C3EA64809480400B7F2B1201EE95
:1000A7008A0D8B0E800E7F2D1201EEC3E49BF50E99
:1000B700E49AF50DAA0CEAD39400400D120142AC64
:0900C7000DAD0E1201DA1A80EDF4
:0100D000220D
:0400D1008A168B17E9
:1000D500120215AA18EAD3940040297F1012014490
:1000E500AC16AD17CFCDCFCECCCE120042EF540F0C
:1000F500FEC3940AEE5004243080022437FF120117
:04010500EE1A80D19D
:0101090022D3
:04010A008A1B8B1CA5
:10010E00120215AA1DEAD394004028EA24FFFDE44A
:10011E0034FFFC7F027E0012014EAC1BAD1CCFCD16
:10012E00CFCECCCE120042EF54012430FF1201EE9E
:03013E001A80D252
:01014100229B
:0401BA008E278F28D5
:1001BE00E528452760151200007F047ECDDEFEDFA8
:0B01CE00FCE528152870E9152780E5E6
:0101D9002203
:10000300BB010CE58229F582E5833AF583E02250B2
:1000130006E92582F8E622BBFE06E92582F8E222FC
:0D002300E58229F582E5833AF583E4932216
:10003000EF8DF0A4A8F0CF8CF0A428CE8DF0A42EE4
:02004000FE229E
:10004200BC000BBE0029EF8DF084FFADF022E4CCA2
:10005200F875F008EF2FFFEE33FEEC33FCEE9DEC6B
:10006200984005FCEE9DFE0FD5F0E9E4CEFD22EDB1
:10007200F8F5F0EE8420D21CFEADF075F008EF2FFB
:10008200FFED33FD4007985006D5F0F222C398FDEC
:050092000FD5F0EA2289
:00000001FF
