:0300000002000EED
:0C000E00787FE4F6D8FD75810C020055E7
:10011D00FF3920331030202B302640246020800002
:03000300010B00EE
:10009A00E4F508F50975890175A882758CD8758A01
:1000AA00EFD28CE4F50B0509E50970020508241D59
:1000BA00F58274013508F583E493F50A0509E50923
:1000CA0070020508241DF58274013508F583E4934E
:1000DA00F50CE50B650C60CBE50AF46015E50A60E2
:1000EA000AB2A5FF7E0012010780E7E4F508F509C8
:0D00FA0080B1C2A5AF0C7E0012010780D5B9
:03000B0002012DC2
:09012D00758CD8758AEF050B32C0
:100107007D02EF4E600FED60031D80FA7D02EF1F49
:0501170070F01E80EDF8
:01011C0022C0
:10001A0002009AE493A3F8E493A34003F68001F262
:10002A0008DFF48029E493A3F85407240CC8C333E7
:10003A00C4540F4420C8834004F456800146F6DFB6
:10004A00E4800B0102040810204080900003E47E43
:10005A00019360BCA3FF543F30E509541FFEE493AB
:10006A00A360010ECF54C025E060A840B8E493A372
:10007A00FAE493A3F8E493A3C8C582C8CAC583CA9D
:10008A00F0A3C8C582C8CAC583CADFE9DEE780BE55
:0100060000F9
:00000001FF
