:100691003F065B4F666D7D077F6F777C395E7971B1
:0B06A100408000FEFDFBF7EFDFBF7F95
:0306B30001130030
:1005E700E4FAF9F812020474912FF58274063EF5C5
:1005F70083E493F580D2A6C2A6C2A7AF120512EF75
:0E0607009006A493F580D2A7C2A77F017E00C3
:100615007D737C00ED1D70011C144C70F7EF1F708D
:06062500011E144E70EAF4
:01062B0022AC
:0706AC00AE071FEE70FA22F9
:0802B5008F118E108D0F8C0ECD
:1002BD00E4F512E5136008C2A68513801205FC7FD4
:1002CD00407E427D0F7C00AB11AA10A90FA80EC372
:1002DD001202A44015C2A67B407A42790F7800AF76
:1002ED0011AE10AD0FAC0E1205EB7FA07E867D0119
:1002FD007C00AB11AA10A90FA80EC31202A44028AE
:10030D00C2A67B407A42790F7800AF11AE10AD0FC7
:10031D00AC0E120204AC00AD01AE02AF037BA07AAD
:10032D0086790178001205EBC2A67BA07A86790149
:10033D007800AF11AE10AD0FAC0E120204AC00ADD3
:10034D0001AE02AF03E47B107A27F9F812020474B0
:10035D00912FF58274063EF583E49344801205FADD
:10036D00C2A6E47B107A27F9F8AF11AE10AD0FAC31
:10037D000E120204AC00AD01AE02AF03E47BE87ACD
:10038D00031205E9E47B64FAF9F8AF11AE10AD0F75
:10039D00AC0E120204AC00AD01AE02AF03E47B0A59
:1003AD00FAF9F8120204E4FBFAF9F8C31202A47088
:1003BD002C7BE87A03F8AF11AE10AD0FAC0E120224
:1003CD0004AC00AD01AE02AF03E47B64FAF9F812A0
:1003DD000204E4FBFAF9F8C31202A46021C2A6E4F8
:1003ED007BE87A03F9F8AF11AE10AD0FAC0E120227
:1003FD0004AC00AD01AE02AF037B641205E7E47BF4
:10040D000AFAF9F8AF11AE10AD0FAC0E120204AC32
:10041D0000AD01AE02AF03E4FBFAF9F8C31202A47A
:10042D00702A7B64F8AF11AE10AD0FAC0E12020442
:10043D00AC00AD01AE02AF03E47B0AFAF9F812028B
:10044D0004E4FBFAF9F8C31202A46020C2A6E47B0F
:10045D0064FAF9F8AF11AE10AD0FAC0E120204AC88
:10046D0000AD01AE02AF037B0A1205E7E47B0AFA89
:10047D00F9F8AF11AE10AD0FAC0E120204AC00AD19
:10048D0001AE02AF03E4FBFAF9F8C31202A4601E39
:10049D00C2A6E47B0AFAF9F8AF11AE10AD0FAC0E9F
:0E04AD0012020474912BF58274063A1205F6C1
:0104BB00221E
:10065500D2A200C2A27F4B1206ACD2A27F04120620
:0F066500ACA2A292007F141206ACD2A200A20097
:010674002263
:02067500AD07CF
:10067700E4FBC2A200ED1392A27F0A1206ACD2A23B
:0906870000EDC313FD0BBB08E9F3
:010690002247
:10062C00E4FCC2A200D2A200A2A2E433FB7F0A1215
:10063C0006ACD2A200EBC43333335480FFEDC313AA
:08064C004FFD0CBC08DCAF05FA
:010654002283
:1004BC001206557FCC1206757F4E1206757F7F1281
:1004CC0006757FF71206757F7F1206751206557F2B
:1004DC00CC1206757F481206751206557FCC120693
:1004EC00757F441206751206557FCC1206757FBEB9
:1004FC0012067512062CAA0712062CAD07ED750C08
:10050C0000F50D750D00F50CAF02EF420DEDC39427
:10051C00084016E50DF4FFE50CF4FEEF2401F50D93
:10052C00E43EF50C7513408003E4F513AC0CAD0DF3
:10053C00E412010E7B007A40791C784412000312FD
:0F054C0001478F0B8E0A8D098C081202B5808A29
:10000300EC4D6011E8497017ED33EC3304600DE4F7
:10001300FCFFFEFD22E933E8330470F80201B3125A
:10002300017E58046009E4CC24815006285009025B
:1000330001BD2840030201BAC0E0EB4A7044B98015
:1000430006D0E0FB0201A9EF4E701CBD8008EBFF58
:10005300EAFEE9FD80EBE98DF0A4FEE5F00200EC99
:10006300E9CDF9EAFEEBFFEF89F0A4FCE5F0CE89D8
:10007300F0A42EFFE435F0CD89F0A42DFEE435F095
:100083008067EF4E7005BD80D780C3EF8BF0A4ACC3
:10009300F0EE8BF0A42CFCE435F0F8EF8AF0A42CFE
:1000A300E5F038FCE433CB8DF0A42CFCE5F03BF811
:1000B300EE8AF0A42CFCE5F038F8E433CF89F0A401
:1000C3002CFCE5F038CF3400CE89F0A42FFFE5F007
:1000D3003EFEE433C98DF0A42EFEE5F039CD8AF05F
:1000E300A42FFFE5F03EFEE43DFD33D0E0FB5007D7
:1000F3000BBB000F0201BDEC2CFCEF33FFEE33FE14
:06010300ED33FD02019541
:1001090075F020800E75F010800575F0087D007E71
:10011900007F003392D530D503120296EC3340109C
:10012900EF33FFEE33FEED33FDEC33FCD5F0ED227A
:0E013900E5F0247EA2D513CC92E7CDCEFF22B6
:10014700EDD2E7CD33EC3392D524814006E4FFFEB0
:10015700FDFC22FCE4CFCECDCC24E0501174FF800F
:10016700EDC3CC13CCCD13CDCE13CECF13CF0470AC
:07017700F030D5DE02029614
:10017E00E9D2E7C933E833F892D5EDD2E7CD33ECC7
:07018E0033FC5002B2D52240
:10019500EC30E7100FBF000C0EBE00080DBD0004CB
:1001A5000BEB6014A2D5EB13FCED92E7FD2274FF77
:1001B500FCFDFEFF22E480F8A2D574FF13FC7D80D0
:0301C500E480EFE4
:0300000002055B9B
:0C055B00787FE4F6D8FD7581200205A22F
:1001C80075F008758200EF2FFFEE33FECD33CDCCEE
:1001D80033CCC58233C5829BED9AEC99E582984071
:1001E8000CF582EE9BFEED9AFDEC99FC0FD5F0D64E
:1001F800E4CEFBE4CDFAE4CCF9A88222B800C1B978
:100208000059BA002DEC8BF084CFCECDFCE5F0CBB5
:10021800F97818EF2FFFEE33FEED33FDEC33FCEBEE
:1002280033FB10D703994004EB99FB0FD8E5E4F9A9
:10023800FA227818EF2FFFEE33FEED33FDEC33FC96
:10024800C933C910D7059BE99A4007EC9BFCE99A8A
:10025800F90FD8E0E4C9FAE4CCFB2275F010EF2FCF
:10026800FFEE33FEED33FDCC33CCC833C810D707CF
:100278009BEC9AE899400AED9BFDEC9AFCE899F80A
:0E0288000FD5F0DAE4CDFBE4CCFAE4C8F9229D
:0E029600C3E49FFFE49EFEE49DFDE49CFC2279
:1002A400EB9FF5F0EA9E42F0E99D42F0E89C45F0B0
:0102B4002227
:100567000204BCE493A3F8E493A34003F68001F2EA
:1005770008DFF48029E493A3F85407240CC8C33395
:10058700C4540F4420C8834004F456800146F6DF64
:10059700E4800B01020408102040809006B3E47E3B
:1005A700019360BCA3FF543F30E509541FFEE49359
:1005B700A360010ECF54C025E060A840B8E493A320
:1005C700FAE493A3F8E493A3C8C582C8CAC583CA4B
:1005D700F0A3C8C582C8CAC583CADFE9DEE780BE03
:0106B6000043
:00000001FF
