:0300000002122EBB
:0C122E00787FE4F6D8FD75813B02127554
:1009020004AE530A57485526BD0D26500D95444650
:10091200AAB9056A4D09AD4224AEB604AE4A6A4D83
:10092200BE0A4D520D25465D52BA0B544E0D6A4316
:10093200296D37095B4B749BC10497540A4B485B82
:1009420025BC06A55006D4454ADAB802B64D095769
:10095200422497B704974A664B3E0D4A510EA5466C
:1009620056D4BA05AD4E02B644393738092E4B7CFF
:1009720096BF0C95530D4A486DA53B0B554F056A22
:10098200454AADB9025D4D092D422C95B60A954AEC
:100992007B4ABD06CA510B5546555ABB04DA4E0A6C
:1009A2005B43352BB8052B4C8A953F0E955206AA10
:1009B200487AD53C0AB54F04B6454A57390A574DCD
:1009C2000526423E93350D954975AABE056A510921
:1009D2006D4654AEBB04AD4F0A4D434D26B70D25AF
:1009E2004B8D52BF0B54520B6A47696D3C095B50E9
:1009F200049B454A4BB90A4B4DAB25C206A554068A
:100A0200D4496ADA3D0AB6510937465497BB04976E
:100A12004F064B4436A5370EA54A86B2BF05AC53E6
:100A22000AB6475936BC092E500C96454D4AB80DA8
:100A32004A4C0DA54125AAB6056A497AADBD025DAB
:100A420052092D475C95BA0A954E0B4A434B5537CE
:100A52000AD54A955ABF04BA530A5B48652BBC05AE
:100A62002B500A9345474AB906AA4C0AD54124DAC3
:100A7200B604B64A69573D0A4E510D26465E933A70
:100A82000D534D05AA4336B537096D4BB4AEBF04BD
:100A9200AD530A4D486D25BC0D254F0D52445DAA3C
:100AA200380B5A4C056D4124ADB6049B4A7A4BBEB5
:100AB2000A4B510AA5465B52BA06D24E0ADA4235B1
:100AC2005B3709374B8497C1049753064B4866A599
:100AD2003C0EA54F06B2444AB6380AAE4C092E4225
:100AE2003C97350C96497D4ABD0D4A510DA5455599
:100AF200AABA056A4E0A6D43452EB7052D4B8A9553
:100B0200BF0A95530B4A476B553B0AD54F055A45C9
:100B12004A5D380A5B4C052B423A93B606934977F5
:100B220029BD06AA510AD54654DABA04B64E0A5766
:100B3200434527380D264A8E933E0D52520DAA4741
:100B420066B53B056D4F04AE454A4EB90A4D4C0D94
:100B520015412D92B5001F3B5A7897B5D4F3011178
:100B62000130014E000303060104060205000305DD
:100B7200323020202D20202D2020200020203A203D
:100B8200203A2020004E4C3A20202D20202D2020DB
:100B92002050494E47004E4C3A20202D20202D2037
:100BA200202052554E200074696D65723A20202033
:100BB2003A20202020202000202020202020202039
:0E0BC20020202020202020200074696D650076
:0A17B100C184C181C103C105C1025A
:0C000E00C2AF53E71843E70143E780222C
:0917BC0053E77FE4F5E6D2AF2209
:0B17900012000E75E64675E6B9002257
:10167700AD07AC06C2AF8CE3EDF5E453E5F843E5FF
:0C168700011217901217BCD2AFAFE22284
:10174700EE54FEFEF5E3E4F5E453E5F843E5031252
:0517570017900217BC11
:10169300AB07AA06C2AF8AE3EBF5E453E5F843E5EB
:0C16A300028DE21217901217BCD2AF2289
:1015D8007F007E20121747AD247E20121693AD237C
:1015E8000F121693A203E433FD0F121693AD287F52
:0415F80060021693E4
:1015FC007F007E201216778F247F011216778F239F
:10160C007F02121677EF24FF92037F601216778FFA
:02161C00282282
:101717001215FCE5286401600E75240C75231EC2A2
:08172700037528011215D822F8
:06105000AD18AC17AF144F
:10105600EF14B40D00400302119990106E75F00361
:10106600A4C58325F0C583730210950210A902104A
:10107600BD0210D10210E50210F902110D02112174
:1010860002113502114902115D02117102118574B6
:10109600022DF58274093CF583E49354087002C36B
:1010A60022D32274022DF58274093CF583E493540D
:1010B600047002C322D32274022DF58274093CF512
:1010C60083E49354027002C322D32274022DF58264
:1010D60074093CF583E49354017002C322D322744D
:1010E600032DF58274093CF583E49354807002C3A2
:1010F60022D32274032DF58274093CF583E49354BC
:10110600407002C322D32274032DF58274093CF584
:1011160083E49354207002C322D32274032DF582F4
:1011260074093CF583E49354107002C322D32274ED
:10113600032DF58274093CF583E49354087002C3C9
:1011460022D32274032DF58274093CF583E493546B
:10115600047002C322D32274032DF58274093CF570
:1011660083E49354027002C322D32274032DF582C2
:1011760074093CF583E49354017002C322D32274AC
:10118600042DF58274093CF583E49354807002C300
:0411960022D322D36B
:01119A002232
:100E1D00E510C4540FFBE510540FFAEBC454F02A3F
:100E2D00F510E511C4540FFBE511540FFAEBC45442
:100E3D00F02AF511E512C4540FFBE512540FFAEB2D
:100E4D00C454F02AF512E5102006072463FFE4339D
:100E5D00800624FFFFE434FFFE7C007D0312088D25
:100E6D008E178F1874042518F58274093517F583BC
:100E7D00E493FE5460FB7805FF08800103D8FDFB69
:100E8D00EE541FFABB010514F5138005EA241EF577
:100E9D0013E511C3940AE511500B900B56932512CF
:100EAD00FFE433801525E0244CF582E4340BF58303
:100EBD007401932512FFE4933400CF24FFF516EF50
:100ECD0034FFF515E511D39402400EE5105403706F
:100EDD00080516E51670020515AF137E00C3E5165D
:100EED009FE5159E4079E5169FF516E5159EF515BE
:100EFD007511017514011210509207C208200704D4
:100F0D007B1D80027B1E74022518F582740935172E
:100F1D00F583E49354F0FA7804FF08800103D8FDBB
:100F2D00FAEBFF7E00C3E5169FE5159E402CE516F6
:100F3D009FF516E5159EF5150514E511B50209B2D7
:100F4D000820080605118002051112105092072085
:100F5D0007047B1D80CB7B1E80C7E516020FF1C3F6
:100F6D00E5139516F513E5107007751063D206801D
:100F7D0002151074FD2518F51874FF3517F5177542
:100F8D00110CFE74022518F58274093EF583E49365
:100F9D0054F0FA7804FF08800103D8FDFA70057546
:100FAD00140C800375140DC20812105092072007FF
:100FBD00047B1D80027B1EE513D39B4023E5139B11
:100FCD00F51315142008021511E511B50202B2082A
:100FDD0012105092072007047B1D80DB7B1E80D7EB
:100FED00C3EB951304F512A2069200E51075F00AF5
:100FFD0084FB7804FF08800123D8FDFBE51075F014
:10100D000A84AAF0EB4AF533E51175F00A84FB78F2
:10101D0004FF08800123D8FDFBE51175F00A84AAB1
:10102D00F0EB4AF531E51275F00A84FB7804FF0800
:10103D00800123D8FDFBE51275F00A84AAF0EB4A76
:02104D00F53775
:01104F00227E
:1014DF0074642FFF1313543F2F75F00784AEF0EE93
:1014EF002BFEED900B65932EFEEF54037007EDC3AB
:0D14FF00940350011EEE75F0078485F02B5C
:01150C0022BC
:0B179B00EF1FAC0670011E4C70F62220
:10153A00E4FDD2B77F08FE12179BC2B77F507E0028
:10154A0012179BD2B77F0E7E0012179BA2B7E43305
:08155A00FD7F147E0002179BC7
:10161E00E4FB7D08C2B7EBC313FBD2B730B703436D
:0D162E0003807F047E0012179BDDE9AF03EF
:01163B00228C
:0216CA00AD076A
:1016CC007B08C2B7ED1392B77F057E0012179BD231
:0716DC00B7EDC313FDDBEBCA
:0116E30022E4
:10139D00E4FAFFFDFCF513F512F511F51012153AEF
:1013AD007FCC1216CA7F441216CA12153A7FCC1280
:1013BD0016CA7FBE1216CA12161EAA0712161EAD27
:1013CD0007EDFCEAFDE41207B1E4FBFA7980783D04
:1013DD001206A68F138E128D118C10E4FFFE7D2048
:1013ED007C41AB13AA12A911A8101206A6E4FBFAB0
:0913FD00F9783F1205B51207EA68
:0114060022C3
:0A156200C204E4F522C2A07F14FECB
:10156C00D3EF9400EE940040147D6E7C00ED1D7062
:0D157C00011CED4C70F7EF1F70E61E80E3C0
:01158900223F
:05163C00FAEF24C0FFDD
:10164100C2A5C2A68F807F017E0012156CD2A77F32
:09165100017E0012156CC2A722F3
:10150D00AF3AEF3395E0FE747E2FF582740B3EF506
:04151D0083E493FFD1
:10152100D2A5C2A68F807F017E0012156CD2A77F43
:09153100017E0012156CC2A72214
:10145C007F381216417F0C1216417F061216417FFF
:10146C00011216417F81121641E4F53AAF3AEF337F
:10147C0095E0FE74722FF582740B12151B053AC39E
:10148C00E53A6480948E40E47FC0121641E4F53A4C
:0F149C0012150D053AC3E53A6480948840F22298
:0616E400C292C290D292F6
:1016EA00EFD292753A08A2E09291C290D290C313B7
:0416FA00D53AF322C8
:10175C00D292753A08A29192E7D290C290C313D557
:04176C003AF3FF222B
:1014AB00AD2A7F06121595E52A75F00A12086BC452
:1014BB0054F0FFE52A75F00A12086BAEF0EF2EF52B
:0514CB002CE4FD7F8E02
:0F14D000AE051216E4AF061216EAD290C29222AF
:0A17A6001216E412175CD290C292F2
:0117B0002216
:031770001217A6A7
:0F177300EFC4540F75F00AA4FEEF540F2EFF229F
:0E178200C292C2901214CC7D807F8E0214D0D1
:061331008F10AB05AA04B9
:101337007C007D64AF03AE0212089F8E118F127C72
:10134700007D64AF03AE0212089F7E007F0ACFCDF7
:10135700CFCECCCE12089F8F82AE02AF037C007D2A
:101367000A12089FAB05AA04E51024C0FF12164114
:10137700E5122430FF121521E5822430FF121521D2
:101387007F2E121521EB2430FF1215217FDF121556
:06139700217F4302152135
:0B158A00AD247F07121595AD237F0AEA
:10159500ED75F00A84ABF0ED75F00A8412163CEA9D
:0D15A5002430FF121521EB2430FF02152128
:0415B200AD387F09C8
:1015B600ED75F00A84ABF0ED75F00A84FAEF24803D
:1015C600FF121641EA2430FF121521EB2430FF02E8
:0215D6001521DD
:1016FE00ED540FFBEDC4540F12163CEA2430FF12CA
:09170E001521EB2430FF02152126
:0B119B00AB38AD34AF291214DFAF2BCE
:1011A600AB077F8C121641EBB40700507A9011BA48
:1011B600F828287302121E0211CF0211D80211E676
:1011C6000211F40212020212107F4D1215217F4FF6
:1011D600804D7F541215217F551215217F4580447D
:1011E6007F571215217F451215217F4480367F5483
:1011F6001215217F481215217F5580287F4612152A
:10120600217F521215217F49801A7F531215217FA3
:10121600541215217F41800C7F531215217F5512E0
:0812260015217F4E1215212253
:10001E00308E10E52E700CE53B700830B10320B227
:10002E0002C20130041230B30C30B00930B10630C8
:10003E00B2030205ADC204223004030205AD20B3A3
:10004E00367F097E0012156C20B32CC204E4F52213
:10005E00E52E7020E53B701C121567D2A0308E0481
:10006E00C28E80100535D201E535B40307E4F52EB6
:10007E00F53BF53530B3FD30B00302019D7F097EAF
:10008E000012156C30B00302019D121562D2A03021
:10009E00B0FDE53564026003020132053BE53BB479
:1000AE000405E4F53BF52EE53B146045146046145B
:1000BE0060472403600302019D7F0C1216417FC02E
:1000CE00121641E4F53AAF3AEF3395E0FE74A92FDC
:1000DE00F582740B12151B053AC3E53A64809490B1
:1000EE0040E412158A7FCD1216417F4F30032580D2
:1000FE00177FC880647FCB80607F0C1216417FCD46
:10010E001216417F4F30030C1215217F4E1215210E
:10011E007F20800A1215217F461215217F46121567
:10012E002102019DE5357067052EE52EB40703E427
:10013E00F52EE52EB40700505690014EF828287380
:10014E0002018502016302016E0201720201760252
:10015E00017A02017EC28C7FC71216417F0F801278
:10016E007FC4800E7FC1800A7F8A80067F878002CF
:10017E007F8412164180187F0C121641D28C1214F5
:10018E00B2AD2C7F801214D07D807F8E1214D0E5FC
:10019E002E70030204AEE53B60030204AE30B103E1
:1001AE0002032C7F0AFE12156C30B10302032C12CF
:1001BE001562D2A030B1FDE52E24FE6040146076AB
:1001CE0014700302027D1470030202B51470030250
:1001DE0002F02405600302032C052AC3E52A64807D
:1001EE0094BC4003E4F52A1214ABAD2C7F8012149C
:1001FE00D07D807F8E1214D07FC7020329052DC3B8
:10020E00E52D648094BC4003E4F52DAD2D7F0312E3
:10021E001595E52D75F00A12086BC454F0FFE52D07
:10022E001214C0AD2C7F821214D07D807F8E1214DA
:10023E00D07FC40203290532C3E53264809498400E
:10024E0003E4F532AD32E4FF121595E53275F00A8E
:10025E0012086BC454F0FFE5321214C0AD2C7F842B
:10026E001214D07D807F8E1214D07FC10203290517
:10027E0038C3E538648094A0400375380112119B91
:10028E001215B2E53875F00A12086BC454F0FFE58A
:10029E00381214C0AD2C7F861214D07D807F8E1242
:1002AE0014D07F8A0203290534C3E5346480948D0B
:1002BE00400375340112119BAD347F061215B6E55D
:1002CE003475F00A12086BC454F0FFE5341214C0F2
:1002DE00AD2C7F881214D07D807F8E1214D07F8734
:1002EE0080390529C3E529648094E44003E4F529A7
:1002FE0012119BAD297F031215B6E52975F00A126E
:10030E00086BC454F0FFE5291214C0AD2C7F8C127B
:10031E0014D07D807F8E1214D07F8412164130B29D
:10032E00030204AE7F0A7E0012156C30B203020483
:10033E00AE121562D2A030B2FDE52E24FE6040143E
:10034E0060761470030203FF1470030204371470F6
:10035E0003020472240560030204AE152AC3E52AC3
:10036E00648094805003752A3B1214ABAD2C7F80B1
:10037E001214D07D807F8E1214D07FC70204AB156D
:10038E002DC3E52D648094805003752D3BAD2D7FDC
:10039E0003121595E52D75F00A12086BC454F0FF83
:1003AE00E52D1214C0AD2C7F821214D07D807F8E6D
:1003BE001214D07FC40204AB1532C3E532648094AC
:1003CE00805003753217AD32E4FF121595E5327584
:1003DE00F00A12086BC454F0FFE5321214C0AD2CB3
:1003EE007F841214D07D807F8E1214D07FC10204C0
:1003FE00AB1538D3E53864809480500375381F12DE
:10040E00119B1215B2E53875F00A12086BC454F040
:10041E00FFE5381214C0AD2C7F861214D07D807F7C
:10042E008E1214D07F8A0204AB1534D3E534648067
:10043E009480500375340C12119BAD347F06121547
:10044E00B6E53475F00A12086BC454F0FFE53412A9
:10045E0014C0AD2C7F881214D07D807F8E1214D0E4
:10046E007F8780391529C3E52964809480500375F0
:10047E00296312119BAD297F031215B6E52975F07C
:10048E000A12086BC454F0FFE5291214C0AD2C7F7C
:10049E008C1214D07D807F8E1214D07F8412164160
:1004AE00E53B70030205ADE52E60030205AD20B1FC
:1004BE00757F0AFE12156C20B16C121562D2A03037
:1004CE00B1FDE53B14604214602A147056B2037FEE
:1004DE00CD1216417F4F30030C1215217F4E12158F
:1004EE00217F20800A1215217F461215217F461288
:1004FE001521802F0523C3E523648094BC4003E4BB
:10050E00F5231215917FCB80170524C3E524648053
:10051E0094984003E4F524AD247F071215957FC807
:10052E001216411215D820B2767F0A7E0012156C73
:10053E0020B26C121562D2A030B2FDE53B146042BF
:10054E0014602A147056B2037FCD1216417F4F30BD
:10055E00030C1215217F4E1215217F20800A1215D1
:10056E00217F461215217F46121521802F1523C398
:10057E00E52364809480500375233B1215917FCB45
:10058E0080171524C3E524648094805003752417C6
:10059E00AD247F071215957FC81216411215D82269
:10165A00758911E4F58CF58A758D3C758BB0D2AF1E
:0D166A00D2A9D2ABD28AC288D28CC28E2205
:10140700E532B5240EE52DB52309E52A700530012F
:1014170002D28EE532B5241DAF23EF3395E0FEEF00
:101427002401FFE43EFEAD2DED3395E0FCEF6D703A
:1014370002EE6C6003200104C28ED2A0E532B5240F
:1014470013D3E5236480F8E52D6480984006C28EA7
:05145700D2A0D2012229
:10172F00C2A07F057E0012156CD2A00530E530B542
:08173F003605E4F530C2052275
:1012BA001217177590FF12139DEF24FBF526EE34D3
:1012CA00FFF52512145C12178212165AC204C2A024
:1012DA007F647E0012156CD2A012171712001EA28C
:1012EA000492A4300303121407E52D7026E52A7030
:1012FA0022D3E5326480948C4008E53224F4F53632
:10130A00800CE532700575360C8003853236852AE5
:10131A0027D2053005C612172F12001EE527652AA7
:07132A0060F7852A2780B55A
:03000B00020BD015
:100BD000C0E0C0F0C083C082C0D075D000C000C0EB
:100BE00001C002C003C004C005C006C0077F811257
:100BF00017708F2A7F831217708F2D7F851217A68B
:100C00001217738F327F871217A61217738F387FD0
:100C1000891217A61217738F347F8D1217A6121719
:100C2000738F29200415E52F652A6005852A2F0575
:100C300022E522B40A05D204752200E5356401607C
:040C400003020D2A74
:100C4400AF29EF3395E0F50E8F0F7E00E50F54F0DA
:100C5400FF7C007D0A12088DEF24D0FFE50F2FFFE3
:100C6400750C00EF540FF50DAE0CFF0C7D901208BF
:100C74009FED4C6015AE0CAF0D7C007D6412089F97
:100C8400ED4C600AE50D54037004D2028002C202E6
:100C9400C206852910853411853812120E1D7FC0B5
:100CA400121641753A00AF3AEF3395E0FE2002097F
:100CB40074872FF582740B800774982FF582740B58
:100CC40012151B053AC3E53A6480949040D8AD33BD
:100CD4007F031216FEAD317F061216FEAD377F0973
:100CE4001216FE12001EE535640160F77FC012166D
:100CF40041753A00AF3AEF3395E0FE74BA2FF582AE
:100D0400740B12151B053AC3E53A6480949040E4D1
:100D14007FC0121641753A0012150D053AC3E53A23
:060D24006480948840F297
:100D2A00E53564026003020DC27FC0121641753AAE
:100D3A0000AF3AEF3395E0FE74A92FF582740B12D7
:100D4A00151B053AC3E53A6480949040E412158A6B
:100D5A007FCD1216417F4F30030C1215217F4E12A0
:100D6A0015217F20800A1215217F461215217F4600
:100D7A0012152112001EE535640260F77FC01216B3
:100D8A0041753A00AF3AEF3395E0FE74BA2FF58217
:100D9A00740B12151B053AC3E53A6480949040E43B
:100DAA007FC0121641753A0012150D053AC3E53A8D
:100DBA006480948840F2802C12139DEF24FBF52660
:100DCA00EE34FFF525AD26FC7F0A1213318000AD03
:100DDA002A7F06121595AD2D7F03121595AD32E4C3
:100DEA00FF1215951215B2AD347F061215B6AD294C
:100DFA007F031215B612119BD007D006D005D00476
:100E0A00D003D002D001D000D0D0D082D083D0F08D
:030E1A00D0E032F3
:03001B000216AF1B
:1016AF00C0E0C0D0758D3C758BB00539E539B40AF3
:0B16BF0005753900B2A0D0D0D0E03299
:1005AE00020856E86480F8E933E83360110460F01D
:1005BE00ED33EC337009E8FCE9FDEAFEEBFF2204B3
:1005CE0060DED3EB9FEA9EE99DE8C2E78CF0C2F7AE
:1005DE0095F0400CE8CCF8E9CDF9EACEFAEBCFFB7A
:1005EE0012082185D0F05804700320D5B3E80470AA
:1005FE00075002B2D502086092D5EC0460F7E4CC45
:10060E00C0E0C398F8603B94186008400DD0E0FB42
:10061E00020838E4FBFAC9FC8028E830E406E4C995
:10062E00FBE4CAFCE830E305E4C9CACBFCE8540796
:10063E006010F8C3E913F9EA13FAEB13FBEC13FCA1
:10064E00D8F130F52FC3E49CFCEF9BFFEE9AFEED44
:10065E0099FDD0E0FBEF4E4D4C701222DB030208E9
:10066E005DEC2CFCEF33FFEE33FEED33FDED30E7AA
:10067E00EB020838EF2BFFEE3AFEED39FDD0E0FB32
:10068E0050130BBB0003020860ED13FDEE13FEEFDB
:08069E0013FFEC13FC02083805
:1006A600EC4D6011E8497017ED33EC3304600DE44E
:1006B600FCFFFEFD22E933E8330470F80208561207
:1006C600082158046009E4CC248150062850090208
:1006D600086028400302085DC0E0EB4A7044B98018
:1006E60006D0E0FB02084CEF4E701CBD8008EBFF05
:1006F600EAFEE9FD80EBE98DF0A4FEE5F002078F46
:10070600E9CDF9EAFEEBFFEF89F0A4FCE5F0CE892E
:10071600F0A42EFFE435F0CD89F0A42DFEE435F0EB
:100726008067EF4E7005BD80D780C3EF8BF0A4AC19
:10073600F0EE8BF0A42CFCE435F0F8EF8AF0A42C54
:10074600E5F038FCE433CB8DF0A42CFCE5F03BF867
:10075600EE8AF0A42CFCE5F038F8E433CF89F0A457
:100766002CFCE5F038CF3400CE89F0A42FFFE5F05D
:100776003EFEE433C98DF0A42EFEE5F039CD8AF0B5
:10078600A42FFFE5F03EFEE43DFD33D0E0FB50072D
:100796000BBB000F020860EC2CFCEF33FFEE33FEC0
:0607A600ED33FD020838EE
:1007AC0075F020800E75F010800575F0087D007EC8
:1007BC00007F003392D530D5031208F4EC3340108F
:1007CC00EF33FFEE33FEED33FDEC33FCD5F0ED22D1
:0E07DC00E5F0247EA2D513CC92E7CDCEFF220D
:1007EA00EDD2E7CD33EC3392D524814006E4FFFE07
:1007FA00FDFC22FCE4CFCECDCC24E0501174FF8066
:10080A00EDC3CC13CCCD13CDCE13CECF13CF047002
:07081A00F030D5DE0208F406
:10082100E9D2E7C933E833F892D5EDD2E7CD33EC1D
:0708310033FC5002B2D52296
:10083800EC30E7100FBF000C0EBE00080DBD000421
:100848000BEB6014A2D5EB13FCED92E7FD2274FFCD
:10085800FCFDFEFF22E480F8A2D574FF13FC7D8026
:03086800E480EF3A
:10123A000212BAE493A3F8E493A34003F68001F2FE
:10124A0008DFF48029E493A3F85407240CC8C333B5
:10125A00C4540F4420C8834004F456800146F6DF84
:10126A00E4800B01020408102040809017B1E47E4C
:10127A00019360BCA3FF543F30E509541FFEE49379
:10128A00A360010ECF54C025E060A840B8E493A340
:10129A00FAE493A3F8E493A3C8C582C8CAC583CA6B
:1012AA00F0A3C8C582C8CAC583CADFE9DEE780BE23
:0117BB00002D
:10086B00C2D530F707B2D563F0FF05F030E70CB215
:10087B00D5F4048463F0FF05F080018430D502F4D5
:02088B00042245
:10088D00EF8DF0A4A8F0CF8CF0A428CE8DF0A42E7F
:02089D00FE2239
:10089F00BC000BBE0029EF8DF084FFADF022E4CC3D
:1008AF00F875F008EF2FFFEE33FEEC33FCEE9DEC06
:1008BF00984005FCEE9DFE0FD5F0E9E4CEFD22ED4C
:1008CF00F8F5F0EE8420D21CFEADF075F008EF2F96
:1008DF00FFED33FD4007985006D5F0F222C398FD87
:0508EF000FD5F0EA2224
:0E08F400C3E49FFFE49EFEE49DFDE49CFC2215
:00000001FF
