:1000A900438902E4F58CF58AD2AFD2A9D28CD288E1
:1000B900D2A8438920758DFD758BFDD29ED28E22E3
:03000B00020006EA
:0300060005473279
:0300030002000EEA
:09000E00C0E0C0D075D000C000B4
:10001700300029E547C39435500AE547C39420408B
:100027000375210074222521F8A64775470005218D
:10003700E521B4210CD2027521008005754700D255
:0100470000B8
:07004800D000D0D0D0E0325F
:10004F007F01E4FEE4FD74222FF8E6D39405400807
:10005F0074432EF8E64480F6EDC39407500C7443B6
:10006F002EF8C000E6C313D000F60F0DBD08D70E53
:05007F00BE04D1D20116
:010084002259
:100085001200A93002FD12004FC2023001F5E4FF53
:1000950074432FF8E6F5993099FDC2990FBF04F026
:0400A500C20180DF35
:030000000200C932
:0C00C900787FE4F6D8FD758147020085C1
:00000001FF
