:10006D007D737C00ED1D70011C144C70F7EF1F703B
:06007D00011E144E70EAA2
:01008300225A
:03000B000200559B
:10005500C0E0C0D00509E509D395085004D2EC806D
:0800650002C2ECD0D0D0E03261
:10000E00C200438902758CDC758ADCD28CD2A9D2EF
:10001E00AF7508507F057E0012006DE508B4FF0431
:10002E00D2008007E508B45002C200E508C394FF71
:10003E005007200004050880DBE508D3945040D417
:07004E003000D1150880CD40
:0300000002008477
:0C008400787FE4F6D8FD75812002000EA4
:00000001FF
