:0A00CC003F065B4F666D7D077F6FF6
:09005E0093F580C2A67F057E0027
:10006700D3EF9400EE940040147D727C00ED1D7078
:0D007700011CED4C70F7EF1F70E61E80E3DA
:010084002259
:10000300EF75F06484FEEF75F06484E5F075F00A33
:1000130084FBEF75F00A84AAF07580FFD2A7758080
:10002300FEC2A7D2A6AF06EF9000CC12005E758089
:10003300FFD2A77580FDC2A7D2A6AF03EF12005E61
:100043007580FFD2A77580FBC2A7D2A6AF02EF933C
:0B005300F580C2A67F057E000200675A
:0B00C100D28C438905E4F58CF58A22FF
:0C00A900D28E438910758D4B758BFD22A3
:100085001200C11200A9308F14C28F758D4B758B6C
:10009500FD0508E508B40A05E4F508B290AF8A1233
:0400A500000380E2F2
:030000000200B546
:0C00B500787FE4F6D8FD75810902008513
:00000001FF
