:1000A700B4F3BCD2BAC3A3A1BBB6D3ADD1A7CFB06B
:0700B700B5A5C6ACBBFA00C1
:10005400D3EF9400EE940040147D727C00ED1D708B
:0D006400011CED4C70F7EF1F70E61E80E3ED
:01007100226C
:1000BE00C29FD29ED28E438920758DFD758BFD22F7
:100072001200BED2997BFF7A0079A7120003309951
:0C008200FDC2997FE87E0312005480E765
:030000000200CE2D
:0C00CE00787FE4F6D8FD7581070200720F
:1000030012008E601CFF09E970010AC0E0EAC0E03B
:10001300EBC0E012002DD0E0FBD0E0FAD0E0F98095
:0A002300DF7F0A12002DE4FEFF2229
:10008E00BB010689828A83E0225002E722BBFE0270
:09009E00E32289828A83E49322A3
:10002D00EFB40A07740D120038740A309811A899AC
:10003D00B8130CC2983098FDA899C298B811F63033
:07004D0099FDC299F599220B
:00000001FF
