:100496003F065B4F666D7D077F6F777C395E7971AE
:0B04A600408000FEFDFBF7EFDFBF7F92
:0C043700E493F580D2A7C2A77F037E00EB
:100443007D737C00ED1D70011C144C70F7EF1F7061
:06045300011E144E70EAC8
:010459002280
:0704BD00AE071FEE70FA22EA
:10032300AB07AA06C2A67C007D641202C074962F96
:10033300F58274043EF583E493F580D2A6C2A6C287
:10034300A79004A9120437C2A67C007D64AF03AE54
:10035300021202C07E007F0ACFCDCFCECCCE1202D6
:10036300C074962FF58274043EF583E4934480F5BC
:1003730080D2A6C2A6C2A79004AA120437C2A6AE10
:1003830002AF037C007D0A1202C074962DF58274BD
:10039300043CF583E493F580D2A6C2A6C2A79004D9
:1003A300ABE493F580D2A7C2A77F037E0002044388
:10045A00D2A200C2A27F4B1204BDD2A27F04120410
:0F046A00BDA2A292007F141204BDD2A200A20074
:010479002260
:02047A00AD07CC
:10047C00E4FBC2A200ED1392A27F0A1204BDD2A229
:09048C0000EDC313FD0BBB08E9F0
:010495002244
:10040E00E4FCC2A200D2A200A2A2E433FB7F0A1235
:10041E0004BDD2A200EBC43333335480FFEDC313BB
:08042E004FFD0CBC08DCAF051A
:0104360022A3
:1003B30012045A7FCC12047A7F4412047A12045A2C
:1003C3007FCC12047A7FBE12047A12040E8F0A12B3
:1003D300040E8F0B7508008F09E509750900F508F0
:1003E300E50A4209E4AC08AD09120206E4FBFA7916
:1003F30020783F1200FBE4FBFAF9783F12000A125F
:0B040300023F8E088F0912032380A522
:100003000202ABE86480F8E933E83360110460F07E
:10001300ED33EC337009E8FCE9FDEAFEEBFF220463
:1000230060DED3EB9FEA9EE99DE8C2E78CF0C2F75E
:1000330095F0400CE8CCF8E9CDF9EACEFAEBCFFB2A
:1000430012027685D0F05804700320D5B3E804700B
:10005300075002B2D50202B592D5EC0460F7E4CCA6
:10006300C0E0C398F8603B94186008400DD0E0FBF3
:1000730002028DE4FBFAC9FC8028E830E406E4C9F7
:10008300FBE4CAFCE830E305E4C9CACBFCE8540747
:100093006010F8C3E913F9EA13FAEB13FBEC13FC52
:1000A300D8F130F52FC3E49CFCEF9BFFEE9AFEEDF5
:1000B30099FDD0E0FBEF4E4D4C701222DB030202A0
:1000C300B2EC2CFCEF33FFEE33FEED33FDED30E706
:1000D300EB02028DEF2BFFEE3AFEED39FDD0E0FB94
:1000E30050130BBB00030202B5ED13FDEE13FEEF3D
:0800F30013FFEC13FC02028D67
:1000FB00EC4D6011E8497017ED33EC3304600DE4FF
:10010B00FCFFFEFD22E933E8330470F80202AB1268
:10011B00027658046009E4CC248150062850090269
:10012B0002B52840030202B2C0E0EB4A7044B9802A
:10013B0006D0E0FB0202A1EF4E701CBD8008EBFF66
:10014B00EAFEE9FD80EBE98DF0A4FEE5F00201E4A7
:10015B00E9CDF9EAFEEBFFEF89F0A4FCE5F0CE89DF
:10016B00F0A42EFFE435F0CD89F0A42DFEE435F09C
:10017B008067EF4E7005BD80D780C3EF8BF0A4ACCA
:10018B00F0EE8BF0A42CFCE435F0F8EF8AF0A42C05
:10019B00E5F038FCE433CB8DF0A42CFCE5F03BF818
:1001AB00EE8AF0A42CFCE5F038F8E433CF89F0A408
:1001BB002CFCE5F038CF3400CE89F0A42FFFE5F00E
:1001CB003EFEE433C98DF0A42EFEE5F039CD8AF066
:1001DB00A42FFFE5F03EFEE43DFD33D0E0FB5007DE
:1001EB000BBB000F0202B5EC2CFCEF33FFEE33FE22
:0601FB00ED33FD02028D50
:1002010075F020800E75F010800575F0087D007E78
:10021100007F003392D530D503120315EC33401023
:10022100EF33FFEE33FEED33FDEC33FCD5F0ED2281
:0E023100E5F0247EA2D513CC92E7CDCEFF22BD
:10023F00EDD2E7CD33EC3392D524814006E4FFFEB7
:10024F00FDFC22FCE4CFCECDCC24E0501174FF8016
:10025F00EDC3CC13CCCD13CDCE13CECF13CF0470B3
:07026F00F030D5DE0203159B
:10027600E9D2E7C933E833F892D5EDD2E7CD33ECCE
:0702860033FC5002B2D52247
:10028D00EC30E7100FBF000C0EBE00080DBD0004D2
:10029D000BEB6014A2D5EB13FCED92E7FD2274FF7E
:1002AD00FCFDFEFF22E480F8A2D574FF13FC7D80D7
:0302BD00E480EFEB
:030000000204B146
:0C04B100787FE4F6D8FD7581200203B3CB
:1002C000BC000BBE0029EF8DF084FFADF022E4CC22
:1002D000F875F008EF2FFFEE33FEEC33FCEE9DECEB
:1002E000984005FCEE9DFE0FD5F0E9E4CEFD22ED31
:1002F000F8F5F0EE8420D21CFEADF075F008EF2F7B
:10030000FFED33FD4007985006D5F0F222C398FD6B
:050310000FD5F0EA2208
:0E031500C3E49FFFE49EFEE49DFDE49CFC22F9
:00000001FF
