:10018C004D6F6E64617920005475657364617920DC
:10019C00005765646E65736461792000FF018CFF04
:0501AC000194FF019D1C
:1001B1007580FFC2B5D2B6D2B4AF80C2B4EF20E72A
:0101C100F647
:0101C200221A
:1001C300AE071201B1C2B5C2B68E80D2B4C2B42298
:1001D300AE071201B1D2B5C2B68E80D2B4C2B42278
:100112007508037509E8780A7C007D007BFF7A0187
:1001220079A87E007F091200D37F381201C37F0FA6
:100132001201C37F011201C37F071201C37F901214
:1001420001C3E4FDED75F003A4240AF8860308E672
:10015200FA08E68B138A14F515AB13AA14A9151223
:1001620000F960200515E5157002051414F9120056
:10017200F9FF1201D3E5091509AE08700215084E00
:0A01820060D780F10DBD03BC80FEC4
:030000000201E317
:0C01E300787FE4F6D8FD7581150201124A
:10000300E709F608DFFA8046E709F208DFFA803EDF
:1000130088828C83E709F0A3DFFA8032E309F608CC
:10002300DFFA8078E309F208DFFA807088828C8334
:10003300E309F0A3DFFA806489828A83E0A3F608E8
:10004300DFFA805889828A83E0A3F208DFFA804CC2
:1000530080D280FA80C680D4806980F28033801099
:1000630080A680EA809A80A880DA80E280CA803302
:1000730089828A83ECFAE493A3C8C582C8CCC5837A
:10008300CCF0A3C8C582C8CCC583CCDFE9DEE7804A
:100093000D89828A83E493A3F608DFF9ECFAA9F0C9
:1000A300EDFB2289828A83ECFAE0A3C8C582C8CC1F
:1000B300C583CCF0A3C8C582C8CCC583CCDFEADE38
:1000C300E880DB89828A83E493A3F208DFF980CC9A
:1000D30088F0EF60010E4E60C388F0ED2402B40493
:1000E3000050B9F582EB2402B4040050AF2323453A
:0600F3008223900053730C
:1000F900BB010689828A83E0225002E722BBFE0205
:09010900E32289828A83E4932237
:00000001FF
